{
  "contractName": "Test",
  "abi": [
    {
      "anonymous": false,
      "inputs": [
        {
          "indexed": false,
          "name": "Wallet_sender",
          "type": "uint256"
        },
        {
          "indexed": false,
          "name": "Wallet_reciever",
          "type": "uint256"
        }
      ],
      "name": "CheckMoney",
      "type": "event"
    },
    {
      "constant": false,
      "inputs": [],
      "name": "set",
      "outputs": [],
      "payable": false,
      "stateMutability": "nonpayable",
      "type": "function"
    },
    {
      "constant": true,
      "inputs": [
        {
          "name": "name",
          "type": "bytes32"
        }
      ],
      "name": "checkBalance",
      "outputs": [
        {
          "name": "",
          "type": "uint256"
        }
      ],
      "payable": false,
      "stateMutability": "view",
      "type": "function"
    },
    {
      "constant": false,
      "inputs": [
        {
          "name": "f",
          "type": "bytes32"
        },
        {
          "name": "t",
          "type": "bytes32"
        },
        {
          "name": "money",
          "type": "uint256"
        }
      ],
      "name": "sendMoney",
      "outputs": [],
      "payable": false,
      "stateMutability": "nonpayable",
      "type": "function"
    },
    {
      "constant": false,
      "inputs": [
        {
          "name": "gg",
          "type": "uint256"
        }
      ],
      "name": "xxx",
      "outputs": [],
      "payable": false,
      "stateMutability": "nonpayable",
      "type": "function"
    }
  ],
  "bytecode": "0x608060405234801561001057600080fd5b50610335806100206000396000f300608060405260043610610062576000357c0100000000000000000000000000000000000000000000000000000000900463ffffffff16806305d309af14610067578063a5e9585f146100b0578063b8e010de146100dd578063bf29ec2f146100f4575b600080fd5b34801561007357600080fd5b506100ae6004803603810190808035600019169060200190929190803560001916906020019092919080359060200190929190505050610139565b005b3480156100bc57600080fd5b506100db60048036038101908080359060200190929190505050610227565b005b3480156100e957600080fd5b506100f2610269565b005b34801561010057600080fd5b5061012360048036038101908080356000191690602001909291905050506102e5565b6040518082815260200191505060405180910390f35b806000808560001916600019168152602001908152602001600020540360008085600019166000191681526020019081526020016000208190555080600080846000191660001916815260200190815260200160002054016000808460001916600019168152602001908152602001600020819055507f11980911f2ef2b1ddac58d49b516520f0edfb7daecf1756b7dce1f638659b6cf600080856000191660001916815260200190815260200160002054600080856000191660001916815260200190815260200160002054604051808381526020018281526020019250505060405180910390a1505050565b7f11980911f2ef2b1ddac58d49b516520f0edfb7daecf1756b7dce1f638659b6cf8182604051808381526020018281526020019250505060405180910390a150565b614e206000807f4100000000000000000000000000000000000000000000000000000000000000600019168152602001908152602001600020819055506127106000807f420000000000000000000000000000000000000000000000000000000000000060001916815260200190815260200160002081905550565b600080600083600019166000191681526020019081526020016000205490509190505600a165627a7a72305820633a188d9172c3a6ebc50ab978ed563c8c7de00fa084d39ba2c7c8a6674b91f80029",
  "source": "pragma solidity ^0.4.23;\n\ncontract Test {\n    event CheckMoney(\n        uint Wallet_sender,\n        uint Wallet_reciever\n    ); \n    \n    mapping(bytes32 => uint) wallet;\n    \n    function set() public {\n        wallet['A'] = 20000;\n        wallet['B'] = 10000;\n    }\n\n    function checkBalance(bytes32 name) view public returns (uint) {\n        return wallet[name]; \n    }\n    \n    function sendMoney(bytes32 f, bytes32 t, uint money) public {\n        wallet[f] = wallet[f] - money;\n        wallet[t] = wallet[t] + money;\n        emit CheckMoney(wallet[f], wallet[t]);\n    } \n    \n    function xxx(uint gg) public {\n        emit CheckMoney(gg,gg);\n    }\n}",
  "sourcePath": "/home/amidamaru/project/EtherApiEnter/contracts/Test.sol",
  "compiler": {
    "name": "solc",
    "version": "0.4.24+commit.e67f0147.Emscripten.clang"
  },
  "schemaVersion": "2.0.1",
  "updatedAt": "2018-09-18T09:16:10.706Z"
}